S01B000049736F6C61746F725F436F6E74726F6C6C65722E7372656339
S113000013C02DC02CC02BC02AC029C028C027C0B3
S113001026C025C024C023C022C021C020C01FC0C8
S11300201EC01DC01CC01BC011241FBECFEFD2E0D8
S1130030DEBFCDBF11E0A0E0B1E0E0EAF2E102C032
S113004005900D92A230B107D9F721E0A2E0B1E00A
S113005001C01D92A936B207E1F70FD81FC9D0CF4E
S1130060E4E6F0E090819E7F908392B3946092BB2B
S1130070EEE7F0E090819F60908390E490937C00A1
S113008093E090937A0010927B00882331F0EAE7A2
S1130090F0E08081806880830895E4E6F0E0808168
S11300A08160808308958091640080FD68C08091A0
S11300B07A0088230CF063C0ECE7F0E08081807F55
S11300C0808380818083EAE7F0E08081806480839C
S11300D080917A0086FDFCCF809178009091790020
S11300E09093090180930801ECE7F0E08081807F20
S11300F08083808181608083EAE7F0E0808180648E
S1130100808380917A0086FDFCCF80917800909165
S113011079009093070180930601ECE7F0E0808179
S1130120807F8083808182608083EAE7F0E0808141
S11301308064808380917A0086FDFCCF8091780072
S1130140909179009093050180930401ECE7F0E02D
S11301508081807F8083808183608083EAE7F0E010
S113016080818064808380917A0086FDFCCF8091B9
S1130170780090917900909303018093020108958F
S11301808130B1F028F0823019F1833089F140C018
S113019080910801909109019C01220F331F220FC5
S11301A0331F820F931F880F991F880F991F08957B
S11301B080910601909107019C01220F331F220FA9
S11301C0331F820F931F880F991F880F991F08955B
S11301D080910401909105019C01220F331F220F8D
S11301E0331F820F931F880F991F880F991F08953B
S11301F080910201909103019C01220F331F220F71
S1130200331F820F931F880F991F880F991F08951A
S113021080E090E008958DB1807F8DB98EB18F60BC
S11302208EB910920A01089590910A0191110CC09F
S11302309CB19F7090930B01882331F08EB1807F25
S11302408EB981E080930A0108958230B9F028F4D0
S1130250882341F0813061F022C08330A9F08F3FC0
S1130260C9F01DC080910B0180FF1BC080E0089580
S113027080910B0181FF17C080E0089580910B01EC
S113028082FF13C080E0089580910B0183FF0FC0AB
S113029080E0089580910B0180958F70089580E02F
S11302A0089581E0089581E0089581E0089581E052
S11302B008958AB1837F8AB98BB1837F8BB98AB160
S11302C083608AB98BB18C7F8BB9089599B1892FDA
S11302D0887093FD81E0089599B1892F847092FD0F
S11302E081E00895823021F48BB181608BB9089547
S11302F08BB18E7F8BB90895823021F48BB18260EB
S11303008BB908958BB18D7F8BB908950F931F938B
S1130310CF93DF938C01EB01CCDFD8018C91E3E127
S1130320F1E0808312968C911297828311968C91BE
S113033081838881ACE0B1E08C938A8112968C939E
S11303401297898111968C938081882319F01092D9
S1130350160103C081E080931601E6E1F1E0118209
S11303601282138280910C01882319F010920F01DC
S113037003C081E080930F01EFE0F1E0118212826B
S1130380138280911501AEDF80910E01B5DFDF91FC
S1130390CF911F910F9108958091180181111DC073
S11303A09BDF882311F091E001C090E08091160159
S11303B0981731F0E6E1F1E083818F5F838302C017
S11303C0109219012091190180911401821728F4C7
S11303D0E6E1F1E0908381E0818380911101811154
S11303E01DC074DF882311F091E001C090E080917A
S11303F00F01981731F0EFE0F1E083818F5F838381
S113040002C0109212012091120180910D018217F5
S113041028F4EFE0F1E0908381E081830895CF93A5
S1130420DF93813019F08230A1F025C0809113014F
S1130430882319F01092160103C081E080931601FD
S1130440C6E1D1E019821B8280E04CDF81E08A831F
S113045012C080910C01882319F010920F0103C07F
S113046081E080930F01CFE0D1E019821B8280E00C
S113047043DF81E08A83DF91CF910895CF93DF93A7
S1130480813019F08230A1F025C0809113018823B6
S113049019F01092160103C081E080931601C6E1A1
S11304A0D1E019821B82809115011CDF1A8212C0CF
S11304B080910C01882319F010920F0103C081E090
S11304C080930F01CFE0D1E019821B8280910E014D
S11304D013DF1A82DF91CF910895813019F08230B1
S11304E069F018C080911801811116C0909116010D
S11304F080911301981791F080E008958091110183
S113050081110EC090910F0180910C01981751F048
S113051080E0089580E0089580E0089581E00895E2
S113052080E0089581E0089585B18B7F85B984B119
S1130530846084B90895882321F085B1846085B9E5
S1130540089585B18B7F85B908952A9B04C085B130
S11305508B7F85B9089585B1846085B90895E4DFFA
S113056010921D0110921C0110921B0110921A018D
S113057010921E01089510921E0110921D011092F6
S11305801C01089581E080931E0110921D011092B8
S11305901C01089522E020931E018230910510F47D
S11305A082E090E09695879590931B0180931A01C1
S11305B0089580911E01813019F0823021F01DC010
S11305C081E0B9DF089580911C0190911D01892B70
S11305D051F080911C0190911D01019790931D0190
S11305E080931C010895B1DF80911A0190911B0141
S11305F090931D0180931C01089580E09CDF089571
S11306009C0190914501923041F46217730728F4DC
S1130610C901861B970BBC0106C08091450181303E
S113062011F060E070E0E4E3F1E011821282653FD2
S113063091E0790720F081E08093340102C01092A8
S1130640340180913D01882329F0E4E3F1E08185C0
S113065081508187809134018823B9F080913D01D4
S1130660811113C0CB0164EF71E004D6809137018E
S11306708095861720F48FEF809337010FC0E4E351
S1130680F1E08381680F638309C080913701882377
S113069029F0E4E3F1E08381815083838091350183
S11306A0811108C080913601811104C08091370105
S11306B08330E0F080913B01811109C080913F01BA
S11306C08F3F29F0E4E3F1E083858F5F8387E4E3E0
S11306D0F1E081E0878384819581892B99F580ED10
S11306E097E090933901809338012CC080913801B0
S11306F090913901892B41F0E4E3F1E08481958103
S11307000197958384831EC080913B01882351F017
S1130710E4E3F1E0178281E0828780ED97E095873A
S1130720848710C08091400190914101892B41F050
S1130730E4E3F1E08485958501979587848702C079
S113074010923F0180913B0108959C0190913001EA
S1130750923041F46217730728F4C901861B970B82
S1130760BC0106C080913001813011F060E070E07E
S1130770EFE1F1E011821282653F91E0790720F008
S113078081E080931F0102C010921F018091280113
S1130790882329F0EFE1F1E0818581508187809100
S11307A01F018823B9F080912801811113C0CB0166
S11307B064EF71E05FD5809122018095861720F463
S11307C08FEF809322010FC0EFE1F1E08381680F86
S11307D0638309C080912201882329F0EFE1F1E0CD
S11307E083818150838380912001811108C080918D
S11307F02101811104C0809122018330E0F08091B5
S11308002601811109C080912A018F3F29F0EFE16F
S1130810F1E083858F5F8387EFE1F1E081E08783F7
S113082084819581892B99F580ED97E0909324013B
S1130830809323012CC08091230190912401892B62
S113084041F0EFE1F1E08481958101979583848300
S11308501EC080912601882351F0EFE1F1E0178258
S113086081E0828780ED97E09587848710C080912E
S11308702B0190912C01892B41F0EFE1F1E084856B
S1130880958501979587848702C010922A018091EB
S113089026010895623099F0633019F0613099F4BB
S11308A00AC0442321F0772381F081E0089577235F
S11308B071F082E00895442361F081E008954423B7
S11308C051F082E0089580E0089582E0089581E087
S11308D0089580E0089580E0089582B3826082BB29
S11308E082B3806282BB85B18C7385B984B1836C19
S11308F084B91092300110924501089590914501F8
S1130900981310923D01823051F485B18E7F85B9E0
S113091085B1806485B982E0809345010895813072
S113092051F485B18F7B85B985B1816085B981E04A
S113093080934501089585B18E7B85B91092450158
S1130940089590913001981310922801823051F447
S113095085B18D7F85B985B1806885B982E0809342
S113096030010895813051F485B18F7785B985B10F
S1130970826085B981E080933001089585B18D77D7
S113098085B91092300108950F931F93CF93DF938D
S1130990EC018B01A2DFE5E4F1E011821282138203
S11309A0D8018C91E2E4F1E0808311968C91119747
S11309B0818312968C918283E4E3F1E010821182A8
S11309C0128213821582148216821782108611866F
S11309D01286138615861486E0E3F1E011821282F2
S11309E013828881EDE2F1E08083898181838A81A9
S11309F08283EFE1F1E01082118212821382158268
S1130A001482168217821086118612861386158622
S1130A101486DF91CF911F910F910895813019F0C1
S1130A20823029F0089581E080933101089581E0B6
S1130A30809346010895813019F0823021F00895A1
S1130A40109231010895109246010895813019F0F1
S1130A50823029F0089581E080933301089581E084
S1130A60809348010895813019F0823021F008956F
S1130A70109233010895109248010895813019F0BD
S1130A80823021F006C0809132010895809147019F
S1130A90089580E00895CF93DF9380913C018823EB
S1130AA031F0E4E3F1E08085815080871EC08091BD
S1130AB03B01811108C080913A01811104C08091E9
S1130AC04801811105C080E019DF109247010DC073
S1130AD0C5E4D1E049816091420170914301809164
S1130AE04401D8DE0BDF89818A8380912701882322
S1130AF031F0EFE1F1E08085815080871EC0809164
S1130B002601811108C080912501811104C08091C2
S1130B103301811105C080E014DF109232010DC051
S1130B20C0E3D1E0498160912D0170912E01809143
S1130B302F01B0DE06DF89818A83DF91CF9108958A
S1130B400F931F93CF93DF93EA018901FEDDB80170
S1130B50CE0156DDDF91CF911F910F910895813021
S1130B6019F0823059F014C080912601811112C00D
S1130B7080912501882389F081E0089580913B01CB
S1130B8081110AC080913A01882339F081E00895E7
S1130B9080E0089581E0089581E00895813019F09E
S1130BA0823021F006C080912A01089580913F018E
S1130BB0089580E00895663008F065E0813019F00A
S1130BC0823021F0089560932701089560933C01D9
S1130BD008950F931F93CF93DF938C01C0E0D0E06F
S1130BE002C061DA2196C017D107D8F3DF91CF9103
S1130BF01F910F9108950F931F93CF93DF938C014F
S1130C00C0E0D0E05FC04FDA80E0BADA909301012F
S1130C108093000183E0B4DA9093650180936401CA
S1130C2081E0AEDA909363018093620182E0A8DAF6
S1130C309093610180936001AFDB81E04EDC80938F
S1130C40670182E04ADC8093660181E017DF9091BE
S1130C505D01891719F091E090935C0180935D0127
S1130C6082E00CDF80935B01209164013091650187
S1130C7080910001909101018217930790F4809173
S1130C806401909165012091000130910101821B62
S1130C90930B90935F0180935E0181E080935A01EE
S1130CA010C0809100019091010120916401309164
S1130CB06501821B930B90935F0180935E011092F8
S1130CC05A012196C017D10708F49DCFDF91CF9127
S1130CD01F910F910895CF93C0915701C1110EC078
S1130CE082E0CCDB4FDC84E690E090935601809365
S1130CF0550181E080935701C1E090C0C13081F477
S1130D008091550190915601009731F0019790938D
S1130D1056018093550182C082E0809357017EC0C2
S1130D20C230D9F480916701882321F08091660153
S1130D30882321F010925701C4E070C081E086DE60
S1130D4081E06CDE88EC90E090935601809355012D
S1130D5083E080935701C1E061C0C33081F5809185
S1130D606701882341F080916601811104C081E00C
S1130D70F6DE882341F081E05EDE81E074DE1092CD
S1130D805701C4E04BC080915501909156010097E2
S1130D9039F001979093560180935501C1E03EC00C
S1130DA082E054DE82E03ADE88EC90E090935601D3
S1130DB08093550184E080935701C1E02FC0C43073
S1130DC061F580916701882361F08091660181114A
S1130DD008C081E0C4DE811104C082E0C0DE882343
S1130DE059F081E028DE82E026DE81E03CDE82E00C
S1130DF03ADE1092570112C080915501909156012C
S1130E00009739F001979093560180935501C1E002
S1130E1005C010925701C2E001C0C1E08C2FCF91F0
S1130E2008958091540181111BC088EC90E0B2DBDD
S1130E3082E001DE80916601882339F084E690E047
S1130E40909353018093520106C084E690E09093FE
S1130E5053018093520181E08093540183E008950B
S1130E60813069F5809164019091650180319742E8
S1130E7018F482E0809354018091520190915301BF
S1130E808536910550F080916601882331F084E61F
S1130E9090E090935301809352018091520190917C
S1130EA05301009739F001979093530180935201B5
S1130EB083E0089582E08093540183E008958230B2
S1130EC069F481E0B8DD83E08093540184E690E026
S1130ED0909353018093520183E008958330B1F4D9
S1130EE020915201309153012115310539F02150DF
S1130EF031093093530120935201089581E0B3DD09
S1130F0082E0B1DD1092540184E0089583E00895F5
S1130F10CF938091510181111EC081E08CDD82E06C
S1130F208ADD81E0A0DD82E09EDD82E078DA88EE71
S1130F3093E030DB80E395E79093500180934F0179
S1130F4088E893E190934E0180934D0181E0809372
S1130F505101C4E02DC080914F0190915001009740
S1130F6031F001979093500180934F0101C003DB4E
S1130F70C0916701CC2341F088E893E190934E013E
S1130F8080934D01C4E014C080914D0190914E01B5
S1130F90009739F0019790934E0180934D01C4E07E
S1130FA007C0109251011092500110924F01E3DAE0
S1130FB08C2FCF9108958CEA8093640008958091DA
S1130FC05D01882329F080915E0190915F0102C048
S1130FD080E090E0853F21E0920710F021E001C01D
S1130FE020E030915801332329F0309158013150D9
S1130FF0309358012223A9F020915801211111C0E6
S113100064EF71E037D180914C01982F9095961739
S113101020F48FEF80934C010BC0680F60934C0158
S113102007C080914C01882319F0815080934C01B2
S113103080914C01853180F081E080934B01809157
S1131040490190914A01892BA9F488EE93E0909389
S11310504A01809349010EC08091490190914A014F
S1131060009731F0019790934A018093490102C09F
S113107010924B0180914B010895CF93DF93CDB72C
S1131080DEB72C970FB6F894DEBF0FBECDBF93DF4B
S1131090C2D865DA81E0E4D775DA8BDA8AE090E0C9
S11310A098DD81E0C1D883E0D0D8882319F010926C
S11310B0590103C081E080935901198282E08B8336
S11310C08AE08A8382E0C1D8882319F081E08C8386
S11310D001C01C8282E08E838AE08D83BE016C5F36
S11310E07F4FCE01019612D981E0C8D982E0C6D9DA
S11310F080E0ABD8882319F081E08F8302C082E0BE
S11311008F83188681E08987A0D8882319F081E02D
S11311108A8702C082E08A871B861C86BE01665FBE
S11311207F4FCE01079630DC81E09DDC82E09BDCC2
S113113081E081DC82E07FDCAEDC84E690E05BDD94
S113114080916701811104C080916601882321F098
S113115084E08093680102C01092680182E05FD944
S11311600ADA81E090E047DD20916001309161016D
S11311704091640150916501609162017091630135
S11311808091000190910101DBDC80915C01882356
S113119029F085E08093580110925C0181E0DFDC46
S11311A0882369F080916801823049F462E081E02B
S11311B002DD83E08093680181E080936601FFDEB5
S11311C0882371F080915901882351F0809168013E
S11311D0823031F483E08093680181E0809366017A
S11311E082E0DCDC863050F080916801823031F49A
S11311F083E08093680181E08093660180916801B7
S11312008230D1F028F4882341F0813089F02CC059
S1131210833011F1843021F127C080916701882344
S113122021F081E08093680122C0109268011FC000
S113123052DD809368011BC080916701882321F0EF
S113124080916601882321F083E0809368010FC0B8
S113125082E0809368010BC0E4DD8093680107C0DD
S113126057DE8093680103C083E08093680113DC38
S1131270A0D977CFAA1BBB1B51E107C0AA1FBB1F74
S1131280A617B70710F0A61BB70B881F991F5A950E
S1131290A9F780959095BC01CD010895F894FFCFEE
S10512A0E02E3A
S9030000FC
